:020000040000FA
:100000000A128A111228FF3FFE00030EF0000408B6
:10001000F1000A08F200831203137F08F3000A12AA
:100020008A151E280A128A153828F400442F003039
:1000300083120313C9000030C8000030C7000E301F
:10004000C6000030CD000030CC000030CB001130B5
:10005000CA000030D1000030D0000030CF00113095
:10006000CE000030D5000030D4000030D3001F3067
:10007000D2000030D9000030D8000030D700113055
:10008000D6000030DD000030DC000030DB00113035
:10009000DA00B22F003083120313C9000030C80009
:1000A0000030C7001E30C6000030CD000030CC004C
:1000B0000030CB001130CA000030D1000030D00039
:1000C0000030CF001E30CE000030D5000030D4000C
:1000D0000030D3001130D2000030D9000030D800F9
:1000E0000030D7001130D6000030DD000030DC00D9
:1000F0000030DB001E30DA00B22F00308312031311
:10010000C9000030C8000030C7000E30C600003003
:10011000CD000030CC000030CB001130CA000030E0
:10012000D1000030D0000030CF001030CE000030C1
:10013000D5000030D4000030D3001030D2000030A1
:10014000D9000030D8000030D7001130D600003080
:10015000DD000030DC000030DB000E30DA00B22FB2
:10016000003083120313C9000030C8000030C700FC
:100170001E30C6000030CD000030CC000030CB0077
:100180001130CA000030D1000030D0000030CF0064
:100190001130CE000030D5000030D4000030D30044
:1001A0001130D2000030D9000030D8000030D70024
:1001B0001130D6000030DD000030DC000030DB0004
:1001C0001E30DA00B22F003083120313C900003052
:1001D000C8000030C7001F30C6000030CD0000301E
:1001E000CC000030CB001030CA000030D10000300D
:1001F000D0000030CF001E30CE000030D5000030DF
:10020000D4000030D3001030D2000030D9000030CC
:10021000D8000030D7001030D6000030DD000030AC
:10022000DC000030DB001F30DA00B22F0030831218
:100230000313C9000030C8000030C7001F30C600DB
:100240000030CD000030CC000030CB001030CA00B0
:100250000030D1000030D0000030CF001E30CE0082
:100260000030D5000030D4000030D3001030D20070
:100270000030D9000030D8000030D7001030D60050
:100280000030DD000030DC000030DB001030DA0030
:10029000B22F003083120313C9000030C8000030B1
:1002A000C7000E30C6000030CD000030CC0000305A
:1002B000CB001130CA000030D1000030D000003037
:1002C000CF001030CE000030D5000030D400003018
:1002D000D3001730D2000030D9000030D8000030F1
:1002E000D7001130D6000030DD000030DC000030D7
:1002F000DB000E30DA00B22F003083120313C90086
:100300000030C8000030C7001130C6000030CD00FA
:100310000030CC000030CB001130CA000030D100DA
:100320000030D0000030CF001F30CE000030D500AC
:100330000030D4000030D3001130D2000030D9009A
:100340000030D8000030D7001130D6000030DD007A
:100350000030DC000030DB001130DA00B22F00305A
:1003600083120313C9000030C8000030C7001F30DB
:10037000C6000030CD000030CC000030CB0004308F
:10038000CA000030D1000030D0000030CF0004306F
:10039000CE000030D5000030D4000030D30004304F
:1003A000D2000030D9000030D8000030D70004302F
:1003B000D6000030DD000030DC000030DB001F30F4
:1003C000DA00B22F003083120313C9000030C800D6
:1003D0000030C7001F30C6000030CD000030CC0018
:1003E0000030CB000230CA000030D1000030D00015
:1003F0000030CF000230CE000030D5000030D400F5
:100400000030D3001230D2000030D9000030D800C4
:100410000030D7001230D6000030DD000030DC00A4
:100420000030DB000E30DA00B22F003083120313ED
:10043000C9000030C8000030C7001130C6000030CD
:10044000CD000030CC000030CB001230CA000030AC
:10045000D1000030D0000030CF001C30CE00003082
:10046000D5000030D4000030D3001230D20000306C
:10047000D9000030D8000030D7001230D60000304C
:10048000DD000030DC000030DB001130DA00B22F7C
:10049000003083120313C9000030C8000030C700C9
:1004A0001030C6000030CD000030CC000030CB0052
:1004B0001030CA000030D1000030D0000030CF0032
:1004C0001030CE000030D5000030D4000030D30012
:1004D0001030D2000030D9000030D8000030D700F2
:1004E0001030D6000030DD000030DC000030DB00D2
:1004F0001F30DA00B22F003083120313C90000301E
:10050000C8000030C7001130C6000030CD000030F8
:10051000CC000030CB001B30CA000030D1000030CE
:10052000D0000030CF001530CE000030D5000030B4
:10053000D4000030D3001530D2000030D900003094
:10054000D8000030D7001530D6000030DD00003074
:10055000DC000030DB001530DA00B22F00308312EF
:100560000313C9000030C8000030C7001130C600B6
:100570000030CD000030CC000030CB001930CA0074
:100580000030D1000030D0000030CF001530CE0058
:100590000030D5000030D4000030D3001530D20038
:1005A0000030D9000030D8000030D7001330D6001A
:1005B0000030DD000030DC000030DB001130DA00FC
:1005C000B22F003083120313C9000030C80000307E
:1005D000C7000E30C6000030CD000030CC00003027
:1005E000CB001130CA000030D1000030D000003004
:1005F000CF001130CE000030D5000030D4000030E4
:10060000D3001130D2000030D9000030D8000030C3
:10061000D7001130D6000030DD000030DC000030A3
:10062000DB000E30DA00B22F003083120313C90052
:100630000030C8000030C7001E30C6000030CD00BA
:100640000030CC000030CB001130CA000030D100A7
:100650000030D0000030CF001130CE000030D50087
:100660000030D4000030D3001E30D2000030D9005A
:100670000030D8000030D7001030D6000030DD0048
:100680000030DC000030DB001030DA00B22F003028
:1006900083120313C9000030C8000030C7000E30B9
:1006A000C6000030CD000030CC000030CB0011304F
:1006B000CA000030D1000030D0000030CF0011302F
:1006C000CE000030D5000030D4000030D30015300B
:1006D000D2000030D9000030D8000030D7001230EE
:1006E000D6000030DD000030DC000030DB000D30D3
:1006F000DA00B22F003083120313C9000030C800A3
:100700000030C7001E30C6000030CD000030CC00E5
:100710000030CB001130CA000030D1000030D000D2
:100720000030CF001F30CE000030D5000030D400A4
:100730000030D3001230D2000030D9000030D80091
:100740000030D7001130D6000030DD000030DC0072
:100750000030DB001130DA00B22F003083120313B7
:10076000C9000030C8000030C7000F30C60000309C
:10077000CD000030CC000030CB001030CA0000307B
:10078000D1000030D0000030CF000E30CE0000305D
:10079000D5000030D4000030D3000130D20000304A
:1007A000D9000030D8000030D7001130D60000301A
:1007B000DD000030DC000030DB000E30DA00B22F4C
:1007C000003083120313C9000030C8000030C70096
:1007D0001F30C6000030CD000030CC000030CB0010
:1007E0000430CA000030D1000030D0000030CF000B
:1007F0000430CE000030D5000030D4000030D300EB
:100800000430D2000030D9000030D8000030D700CA
:100810000430D6000030DD000030DC000030DB00AA
:100820000430DA00B22F003083120313C900003005
:10083000C8000030C7001130C6000030CD000030C5
:10084000CC000030CB001130CA000030D1000030A5
:10085000D0000030CF001130CE000030D500003085
:10086000D4000030D3001130D2000030D900003065
:10087000D8000030D7001130D6000030DD00003045
:10088000DC000030DB000E30DA00B22F00308312C3
:100890000313C9000030C8000030C7001130C60083
:1008A0000030CD000030CC000030CB001130CA0049
:1008B0000030D1000030D0000030CF001130CE0029
:1008C0000030D5000030D4000030D3001130D20009
:1008D0000030D9000030D8000030D7000A30D600F0
:1008E0000030DD000030DC000030DB000430DA00D6
:1008F000B22F003083120313C9000030C80000304B
:10090000C7001530C6000030CD000030CC000030EC
:10091000CB001530CA000030D1000030D0000030CC
:10092000CF001530CE000030D5000030D4000030AC
:10093000D3001530D2000030D9000030D80000308C
:10094000D7001530D6000030DD000030DC0000306C
:10095000DB000A30DA00B22F003083120313C90023
:100960000030C8000030C7001130C6000030CD0094
:100970000030CC000030CB000A30CA000030D1007B
:100980000030D0000030CF000430CE000030D50061
:100990000030D4000030D3000430D2000030D90041
:1009A0000030D8000030D7000A30D6000030DD001B
:1009B0000030DC000030DB001130DA00B22F0030F4
:1009C00083120313C9000030C8000030C700113083
:1009D000C6000030CD000030CC000030CB0011301C
:1009E000CA000030D1000030D0000030CF000A3003
:1009F000CE000030D5000030D4000030D3000430E9
:100A0000D2000030D9000030D8000030D7000430C8
:100A1000D6000030DD000030DC000030DB000430A8
:100A2000DA00B22F003083120313C9000030C8006F
:100A30000030C7001F30C6000030CD000030CC00B1
:100A40000030CB000130CA000030D1000030D000AF
:100A50000030CF000230CE000030D5000030D4008E
:100A60000030D3000430D2000030D9000030D8006C
:100A70000030D7000830D6000030DD000030DC0048
:100A80000030DB001F30DA00B22F00308312031376
:100A9000C9000030C8000030C7000E30C60000306A
:100AA000CD000030CC000030CB001130CA00003047
:100AB000D1000030D0000030CF001130CE00003027
:100AC000D5000030D4000030D3001130D200003007
:100AD000D9000030D8000030D7001130D6000030E7
:100AE000DD000030DC000030DB000E30DA00B22F19
:100AF000003083120313C9000030C8000030C70063
:100B00000430C6000030CD000030CC000030CB00F7
:100B10000C30CA000030D1000030D0000030CF00CF
:100B20001430CE000030D5000030D4000030D300A7
:100B30000430D2000030D9000030D8000030D70097
:100B40000430D6000030DD000030DC000030DB0077
:100B50001F30DA00B22F003083120313C9000030B7
:100B6000C8000030C7000E30C6000030CD00003095
:100B7000CC000030CB001130CA000030D100003072
:100B8000D0000030CF000130CE000030D500003062
:100B9000D4000030D3001E30D2000030D900003025
:100BA000D8000030D7001030D6000030DD00003013
:100BB000DC000030DB001F30DA00B22F003083127F
:100BC0000313C9000030C8000030C7001E30C60043
:100BD0000030CD000030CC000030CB000130CA0026
:100BE0000030D1000030D0000030CF000E30CE00F9
:100BF0000030D5000030D4000030D3000130D200E6
:100C00000030D9000030D8000030D7000130D600C5
:100C10000030DD000030DC000030DB001E30DA0088
:100C2000B22F003083120313C9000030C800003017
:100C3000C7000230C6000030CD000030CC000030CC
:100C4000CB000630CA000030D1000030D0000030A8
:100C5000CF000A30CE000030D5000030D400003084
:100C6000D3001230D2000030D9000030D80000305C
:100C7000D7001F30D6000030DD000030DC0000302F
:100C8000DB000230DA00B22F003083120313C900F8
:100C90000030C8000030C7001F30C6000030CD0053
:100CA0000030CC000030CB001030CA000030D10042
:100CB0000030D0000030CF001E30CE000030D50014
:100CC0000030D4000030D3000130D2000030D90011
:100CD0000030D8000030D7000130D6000030DD00F1
:100CE0000030DC000030DB001E30DA00B22F0030B4
:100CF00083120313C9000030C8000030C7001F3042
:100D0000C6000030CD000030CC000030CB001030E9
:100D1000CA000030D1000030D0000030CF001F30BA
:100D2000CE000030D5000030D4000030D3001130A8
:100D3000D2000030D9000030D8000030D700113088
:100D4000D6000030DD000030DC000030DB001F305A
:100D5000DA00B22F003083120313C9000030C8003C
:100D60000030C7001F30C6000030CD000030CC007E
:100D70000030CB000130CA000030D1000030D0007C
:100D80000030CF000130CE000030D5000030D4005C
:100D90000030D3000130D2000030D9000030D8003C
:100DA0000030D7000130D6000030DD000030DC001C
:100DB0000030DB000130DA00B22F00308312031361
:100DC000C9000030C8000030C7000E30C600003037
:100DD000CD000030CC000030CB001130CA00003014
:100DE000D1000030D0000030CF000E30CE000030F7
:100DF000D5000030D4000030D3001130D2000030D4
:100E0000D9000030D8000030D7001130D6000030B3
:100E1000DD000030DC000030DB000E30DA00B22FE5
:100E2000003083120313C9000030C8000030C7002F
:100E30001F30C6000030CD000030CC000030CB00A9
:100E40001130CA000030D1000030D0000030CF0097
:100E50001F30CE000030D5000030D4000030D30069
:100E60000130D2000030D9000030D8000030D70067
:100E70000130D6000030DD000030DC000030DB0047
:100E80001F30DA00B22FB22F7408303A0319452D03
:100E9000013A0319782D033A0319AB2D013A0319CE
:100EA000DE2D073A0319112E013A0319442E033A95
:100EB0000319772E013A0319AA2E0F3A0319DD2ED2
:100EC000013A0319102F783A03191728033A031926
:100ED0004A28013A03197D28073A0319B028013A34
:100EE0000319E328033A03191629013A031949297A
:100EF0000F3A03197C29013A0319AF29033A031960
:100F0000E229013A0319152A073A0319482A013A36
:100F100003197B2A033A0319AE2A013A0319E12A7D
:100F20001F3A0319142B013A0319472B033A0319EB
:100F30007A2B013A0319AD2B073A0319E02B013A3A
:100F40000319132C033A0319462C013A0319792C7F
:100F50000F3A0319AC2C013A0319DF2C033A031999
:100F6000122DB22F0800831203130810F501203050
:100F70007502031CBC2FBD2FBF2FE72FE72F0811D1
:100F8000750AA5002008A6002108A7002208A800CD
:100F90002308A900D02F290DA90CA80CA70CA60C7A
:100FA000A50BCB2F2618D52FD92F83120313881406
:100FB000DC2F83120313881008150130A5002508C3
:100FC000F50720307502031CE62FE72FBF2F08140A
:100FD00008160812F401F32F881188150130A500B6
:100FE0002508F407F32F24087402031CF82FF92FA7
:100FF000EC2FFA2F0800FF3FFF3FFF3FFF3FFF3F6F
:101000008B168316031381128111011081100111B7
:101010000B118B1708007E088A007F0882000A12D5
:101020008A150B200A128A158000840A04087D069E
:1010300003190034FF0A0319FE0A0F280B1D21288B
:1010400022282D280130DE070318DF0A0030DF07D1
:10105000063081000B118B122D287308FF007208D7
:101060008A0071088400700E8300FE0E7E0E090057
:10107000F601F701F801F901831346308400653069
:101080000A168A1129200A128A15A0308400E83035
:101090000A168A1129200A128A156D30FD001030B7
:1010A000FE003130FF00653084000A128A150F20DF
:1010B0000A128A1583010A168A1164293E308312A6
:1010C0000313B3000330B200E030B1003E30B00093
:1010D000AF0167298B1614305E065F04031971286F
:1010E000722857293008831603132005831203132F
:1010F000A000310883160313210583120313A100F6
:10110000320883160313220583120313A200330847
:1011100083160313230583120313A300A4010A12E9
:101120008A11B3270A128A15831203133008831613
:101130000313240583120313A0003108831603133D
:10114000250583120313A100320883160313260515
:1011500083120313A2003308831603132705831297
:101160000313A300A4010314A40D0A128A11B327C8
:101170000A128A15831203133008831603132805F5
:1011800083120313A0003108831603132905831269
:101190000313A1003208831603132A0583120313D5
:1011A000A2003308831603132B0583120313A30035
:1011B0000230AA002A08A4000A128A11B3270A12D0
:1011C0008A15831203133008831603132C05831228
:1011D0000313A0003108831603132D058312031394
:1011E000A1003208831603132E0583120313A200F5
:1011F0003308831603132F0583120313A300033050
:10120000AA002A08A4000A128A11B3270A128A1512
:10121000831203133008831603133005831203135C
:10122000A000310883160313310583120313A100B4
:10123000320883160313320583120313A200330806
:1012400083160313330583120313A3000430AA008B
:101250002A08A4000A128A11B3270A128A158312D7
:101260000313300883160313340583120313A000FD
:10127000310883160313350583120313A1003208C6
:1012800083160313360583120313A2003308831653
:101290000313370583120313A3000530AA002A089D
:1012A000A4000A128A11B3270A128A15572914308A
:1012B000831203135E065F04031D5F2960296729FB
:1012C000AF010314AF0DDE01DF01672967292F0885
:1012D000013A031D6C296D296A289D2A9D2A8B16C7
:1012E00014305E065F040319762977298C2A3009A9
:1012F000AA003109AB003209AC003309AD008316F6
:1013000003132008831203132A05A0008316031376
:101310002108831203132B05A1008316031322084F
:10132000831203132C05A2008316031323088312D0
:1013300003132D05A300A4010A128A11B3270A1270
:101340008A15831203133009AA003109AB00320950
:10135000AC003309AD008316031324088312031372
:101360002A05A000831603132508831203132B05F7
:10137000A100831603132608831203132C05A20071
:10138000831603132708831203132D05A300A4015A
:101390000314A40D0A128A11B3270A128A158312A4
:1013A00003133009AA003109AB003209AC0033093C
:1013B000AD00831603132808831203132A05A00027
:1013C000831603132908831203132B05A100831628
:1013D00003132A08831203132C05A2008316031398
:1013E0002B08831203132D05A3000230AE002E0834
:1013F000A4000A128A11B3270A128A158312031352
:101400003009AA003109AB003209AC003309AD0044
:10141000831603132C08831203132A05A0008316D6
:1014200003132D08831203132B05A1008316031346
:101430002E08831203132C05A200831603132F0812
:10144000831203132D05A3000330AE002E08A40061
:101450000A128A11B3270A128A158312031330095C
:10146000AA003109AB003209AC003309AD00831684
:1014700003133008831203132A05A00083160313F5
:101480003108831203132B05A100831603133208BE
:10149000831203132C05A20083160313330883124F
:1014A00003132D05A3000430AE002E08A4000A1279
:1014B0008A11B3270A128A15831203133009AA006E
:1014C0003109AB003209AC003309AD0083160313B8
:1014D0003408831203132A05A0008316031335086A
:1014E000831203132B05A1008316031336088312FE
:1014F00003132C05A200831603133708831203136A
:101500002D05A3000530AE002E08A4000A128A1192
:10151000B3270A128A158C2A1430831203135E062D
:101520005F04031D942A952A9D2A0230AA002A08E6
:10153000AF00DE01DF019D2A9D2A2F08023A031D1C
:10154000A22AA32A6F29A42A080083120313B20136
:101550000030B6000030B5000030B4000130B300F8
:10156000B2017F30B600FF30B500FF30B400FF306D
:10157000B300C12B8B1614305E065F040319C12A19
:10158000C22AA72B330883160313200583120313E3
:10159000A000340883160313210583120313A1004E
:1015A000350883160313220583120313A20036089D
:1015B00083160313230583120313A300A4010A1245
:1015C0008A11B3270A128A1583120313330883166C
:1015D0000313240583120313A00034088316031396
:1015E000250583120313A10035088316031326056E
:1015F00083120313A20036088316031327058312F0
:101600000313A300A4010314A40D0A128A11B32723
:101610000A128A158312031333088316031328054D
:1016200083120313A00034088316031329058312C1
:101630000313A1003508831603132A05831203132D
:10164000A2003608831603132B0583120313A3008D
:101650000230AA002A08A4000A128A11B3270A122B
:101660008A15831203133308831603132C05831280
:101670000313A0003408831603132D0583120313EC
:10168000A1003508831603132E0583120313A2004D
:101690003608831603132F0583120313A3000330A8
:1016A000AA002A08A4000A128A11B3270A128A156E
:1016B00083120313330883160313300583120313B5
:1016C000A000340883160313310583120313A1000D
:1016D000350883160313320583120313A20036085C
:1016E00083160313330583120313A3000430AA00E7
:1016F0002A08A4000A128A11B3270A128A15831233
:101700000313330883160313340583120313A00055
:10171000340883160313350583120313A10035081B
:1017200083160313360583120313A20036088316AB
:101730000313370583120313A3000530AA002A08F8
:10174000A4000A128A11B3270A128A15A72B143093
:10175000831203135E065F04031DAF2BB02BC12B56
:101760000130AA002A08B20701300310B60CB50CEC
:10177000B40CB30CFF3E031DB52BDE01DF01C12B02
:10178000C12B20303202031CC62BC72BBA2AB20150
:101790008030B6000030B5000030B4000030B30037
:1017A000022D8B1614305E065F040319D82BD92B3B
:1017B000BE2C330883160313200583120313A000E5
:1017C000340883160313210583120313A10035087F
:1017D00083160313220583120313A200360883160F
:1017E0000313230583120313A300A4010A128A1111
:1017F000B3270A128A1583120313330883160313BF
:10180000240583120313A00034088316031325054F
:1018100083120313A10035088316031326058312D0
:101820000313A2003608831603132705831203133C
:10183000A300A4010314A40D0A128A11B3270A12EB
:101840008A158312031333088316031328058312A2
:101850000313A0003408831603132905831203130E
:10186000A1003508831603132A0583120313A2006F
:101870003608831603132B0583120313A3000230CB
:10188000AA002A08A4000A128A11B3270A128A158C
:10189000831203133308831603132C0583120313D7
:1018A000A0003408831603132D0583120313A1002F
:1018B0003508831603132E0583120313A20036087E
:1018C000831603132F0583120313A3000330AA000A
:1018D0002A08A4000A128A11B3270A128A15831251
:1018E0000313330883160313300583120313A00078
:1018F000340883160313310583120313A10035083E
:1019000083160313320583120313A20036088316CD
:101910000313330583120313A3000430AA002A081B
:10192000A4000A128A11B3270A128A15831203131C
:10193000330883160313340583120313A0003408FD
:1019400083160313350583120313A100350883168C
:101950000313360583120313A200360883160313FC
:10196000370583120313A3000530AA002A08A40038
:101970000A128A11B3270A128A15BE2C1430831258
:1019800003135E065F04031DC62CC72C022D013015
:10199000AA002A08B2070030AA000030AB000030CD
:1019A000AC008030AD003308AE003408AF0035081D
:1019B000B0003608B10001300310B10CB00CAF0C10
:1019C000AE0CFF3E031DDC2C2E08AA072F080318BF
:1019D0002F0FEB2CEC2CAB0730080318300FF12C39
:1019E000F22CAC0731080318310AAD072D08B600F8
:1019F0002C08B5002B08B4002A08B300DE01DF0173
:101A0000022D022D1F303202031C072D082DD12B71
:101A1000092D0800FF3083120313BE00FF30BD0004
:101A20000030BC000030BB000030C2000030C100FC
:101A3000FF30C000FF30BF000130C3000030C400E1
:101A40000030C500F02F8B1614305E065F040319BA
:101A50002A2D2B2DD92F3F08AA004008AB004108A2
:101A6000AC004208AD003F08831603132005831223
:101A70000313AE00400883160313210583120313DA
:101A8000AF00410883160313220583120313B0002D
:101A9000420883160313230583120313B100430A7C
:101AA000562D0310B10CB00CAF0CAE0CFF3E031D55
:101AB000512D2E08AA052F08AB053008AC053108BA
:101AC000AD053B08B2003C08B3003D08B4003E0839
:101AD000B5003B0883160313200583120313B600D9
:101AE0003C0883160313210583120313B7003D0836
:101AF00083160313220583120313B8003E088316CE
:101B00000313230583120313B900430A8C2D03101A
:101B1000B60DB70DB80DB90DFF3E031D872D360864
:101B2000B2053708B3053808B4053908B5052A08E1
:101B30003204A0002B083304A1002C083404A200B6
:101B40002D083504A300A4010A128A11B3270A1232
:101B50008A15831203133F08AA004008AB0041080E
:101B6000AC004208AD000430A03E84003F0883135F
:101B70000005AE00840A40080005AF00840A410851
:101B80000005B000840A42080005B100430ACD2DCB
:101B90000310B10CB00CAF0CAE0CFF3E031DC82DF2
:101BA0002E08AA052F08AB053008AC053108AD0595
:101BB0003B08B2003C08B3003D08B4003E08B50045
:101BC0000430A03E84003B080005B600840A3C08AF
:101BD0000005B700840A3D080005B800840A3E08E5
:101BE0000005B900430AF92D0310B60DB70DB80D65
:101BF000B90DFF3E031DF42D3608B2053708B305B5
:101C00003808B4053908B5052A083204A0002B08A5
:101C10003304A1002C083404A2002D083504A300CD
:101C2000A4010314A40D0A128A11B3270A128A15FB
:101C3000831203133F08AA004008AB004108AC0020
:101C40004208AD000830A03E84003F088313000521
:101C5000AE00840A40080005AF00840A4108000570
:101C6000B000840A42080005B100430A3C2E03106C
:101C7000B10CB00CAF0CAE0CFF3E031D372E2E087E
:101C8000AA052F08AB053008AC053108AD053B08A7
:101C9000B2003C08B3003D08B4003E08B50008306F
:101CA000A03E84003B080005B600840A3C080005FD
:101CB000B700840A3D080005B800840A3E08000504
:101CC000B900430A682E0310B60DB70DB80DB90D53
:101CD000FF3E031D632E3608B2053708B3053808EA
:101CE000B4053908B5052A083204A0002B083304CE
:101CF000A1002C083404A2002D083504A3000230F2
:101D0000BA003A08A4000A128A11B3270A128A15E7
:101D1000831203133F08AA004008AB004108AC003F
:101D20004208AD000C30A03E84003F08831300053C
:101D3000AE00840A40080005AF00840A410800058F
:101D4000B000840A42080005B100430AAC2E03101B
:101D5000B10CB00CAF0CAE0CFF3E031DA72E2E082D
:101D6000AA052F08AB053008AC053108AD053B08C6
:101D7000B2003C08B3003D08B4003E08B5000C308A
:101D8000A03E84003B080005B600840A3C0800051C
:101D9000B700840A3D080005B800840A3E08000523
:101DA000B900430AD82E0310B60DB70DB80DB90D02
:101DB000FF3E031DD32E3608B2053708B305380899
:101DC000B4053908B5052A083204A0002B083304ED
:101DD000A1002C083404A2002D083504A300033010
:101DE000BA003A08A4000A128A11B3270A128A1507
:101DF000831203133F08AA004008AB004108AC005F
:101E00004208AD001030A03E84003F088313000557
:101E1000AE00840A40080005AF00840A41080005AE
:101E2000B000840A42080005B100430A1C2F0310C9
:101E3000B10CB00CAF0CAE0CFF3E031D172F2E08DB
:101E4000AA052F08AB053008AC053108AD053B08E5
:101E5000B2003C08B3003D08B4003E08B5001030A5
:101E6000A03E84003B080005B600840A3C0800053B
:101E7000B700840A3D080005B800840A3E08000542
:101E8000B900430A482F0310B60DB70DB80DB90DB0
:101E9000FF3E031D432F3608B2053708B305380847
:101EA000B4053908B5052A083204A0002B0833040C
:101EB000A1002C083404A2002D083504A30004302E
:101EC000BA003A08A4000A128A11B3270A128A1526
:101ED000831203133F08AA004008AB004108AC007E
:101EE0004208AD001430A03E84003F088313000573
:101EF000AE00840A40080005AF00840A41080005CE
:101F0000B000840A42080005B100430A8C2F031078
:101F1000B10CB00CAF0CAE0CFF3E031D872F2E088A
:101F2000AA052F08AB053008AC053108AD053B0804
:101F3000B2003C08B3003D08B4003E08B5001430C0
:101F4000A03E84003B080005B600840A3C0800055A
:101F5000B700840A3D080005B800840A3E08000561
:101F6000B900430AB82F0310B60DB70DB80DB90D5F
:101F7000FF3E031DB32F3608B2053708B3053808F6
:101F8000B4053908B5052A083204A0002B0833042B
:101F9000A1002C083404A2002D083504A30005304C
:101FA000BA003A08A4000A128A11B3270A128A1545
:101FB000D92F1430831203135E065F04031DE12F33
:101FC000E22FF02F0130C307003003180130C4079F
:101FD000003003180130C507DE01DF01F02FF02FBC
:101FE00000304502031DFA2F00304402031DFA2F72
:101FF00010304302031CFD2FFE2F232DFF2F08005E
:1020000010308A000408840A8207003453344134B3
:102010005434593441340034FF3FFF3FFF3FFF3F0A
:10202000FF3FFF3FFF3FFF3FFF3FFF3FFF3FFF3FC0
:10203000FF3FFF3FFF3FFF3FFF3FFF3FFF3FFF3FB0
:10204000FF3FFF30831603138600831603178901B1
:10205000080064008001840A0406031900340406A1
:102060002A2803340034003400340F3400340034A0
:102070000034831603130810881008118811081201
:10208000831203130816081208000A168A11212069
:102090000A168A110A168A1139200A168A110A129A
:1020A0008A1500200A168A110800003083120313D3
:1020B000A3000030A2000030A1000030A000A40165
:1020C0000A128A11B3270A168A11003083120313E9
:1020D000A3000030A2000030A1000030A000A40145
:1020E0000314A40D0A128A11B3270A168A110030AC
:1020F00083120313A3000030A2000030A1000030BF
:10210000A0000230AA002A08A4000A128A11B327EC
:102110000A168A11003083120313A3000030A200B4
:102120000030A1000030A0000330AA002A08A4005B
:102130000A128A11B3270A168A1100308312031378
:10214000A3000030A2000030A1000030A000043045
:10215000AA002A08A4000A128A11B3270A168A11B3
:10216000003083120313A3000030A2000030A1004E
:102170000030A0000530AA002A08A4000A128A1123
:10218000B3270A168A110800831603132308831243
:102190000313A30083160313220883120313A20060
:1021A00083160313210883120313A100831603135C
:1021B000200883120313A000A4010A128A11B32776
:1021C0000A168A110430A03E84008313000883128B
:1021D0000313A000840A0008A100840A0008A200DA
:1021E000840A0008A300A4010314A40D0A128A1192
:1021F000B3270A168A110830A03E84008313000812
:1022000083120313A000840A0008A100840A0008B6
:10221000A200840A0008A3000230AA002A08A40031
:102220000A128A11B3270A168A110C30A03E8400C4
:102230008313000883120313A000840A0008A1007E
:10224000840A0008A200840A0008A3000330AA0040
:102250002A08A4000A128A11B3270A168A1110301C
:10226000A03E84008313000883120313A000840A95
:102270000008A100840A0008A200840A0008A30044
:102280000430AA002A08A4000A128A11B3270A16E9
:102290008A111430A03E84008313000883120313B4
:1022A000A000840A0008A100840A0008A200840A91
:1022B0000008A3000530AA002A08A4000A128A1107
:1022C000B3270A168A1108000A168A1145200A1631
:1022D0008A11013083120313A0000030A1000130E5
:1022E0000A168A1190240A168A1176290A168A116A
:1022F0001C220A168A117508F701F7077408F601FF
:10230000F607023076067704031D872988298C2971
:102310000230F8000030F900033076067704031D20
:102320009229932997290330F8000030F9000430EE
:1023300076067704031D9D299E29A2290430F80002
:102340000030F900053076067704031DA829A92975
:10235000AD290530F8000030F90006307606770424
:10236000031DB329B429B8290630F8000030F9005C
:10237000073076067704031DBE29BF29C32907301D
:10238000F8000030F900023078067904031DC929ED
:10239000CA29D0290A128A150A250A168A11D029B3
:1023A000033078067904031DD629D729DD290A12BE
:1023B0008A15A5220A168A11DD29043078067904C7
:1023C000031DE329E429EA290A128A155E200A1668
:1023D0008A11EA29053078067904031DF029F129CC
:1023E000F7290A168A1122260A168A11F7290630B9
:1023F00078067904031DFD29FE29042A0A168A118C
:1024000009230A168A11042A073078067904031D65
:102410000A2A0B2A112A0A168A1155200A168A112D
:1024200076290A168A11C4200A168A117629762975
:1024300076290A128A11122883120313061C212AF4
:10244000222A452AA001A101003021021E300319D1
:102450002002031C2C2A2D2A2F2A3F2A3F2A013032
:10246000A0070318A10A0030A107003021021E3086
:1024700003192002031C3D2A3E2A2F2A3F2A02303C
:10248000F4000030F500082B082B861C482A492A46
:102490006C2AA001A101003021021E300319200284
:1024A000031C532A542A562A662A662A0130A0079A
:1024B0000318A10A0030A107003021021E300319C1
:1024C0002002031C642A652A562A662A0330F40077
:1024D0000030F500082B082B061D6F2A702A932A5E
:1024E000A001A101003021021E3003192002031CAB
:1024F0007A2A7B2A7D2A8D2A8D2A0130A00703188B
:10250000A10A0030A107003021021E300319200269
:10251000031C8B2A8C2A7D2A8D2A0430F40000307B
:10252000F500082B082B861D962A972ABA2AA001A7
:10253000A101003021021E3003192002031CA12A30
:10254000A22AA42AB42AB42A0130A0070318A10A97
:102550000030A107003021021E3003192002031CA5
:10256000B22AB32AA42AB42A0530F4000030F500B8
:10257000082B082B061EBD2ABE2AE12AA001A101B4
:10258000003021021E3003192002031CC82AC92A68
:10259000CB2ADB2ADB2A0130A0070318A10A00306E
:1025A000A107003021021E3003192002031CD92A82
:1025B000DA2ACB2ADB2A0630F4000030F500082B9B
:1025C000082B861EE42AE52A082BA001A101003071
:1025D00021021E3003192002031CEF2AF02AF22ADE
:1025E000022B022B0130A0070318A10A0030A1071B
:1025F000003021021E3003192002031C002B012B86
:10260000F22A022B0730F4000030F500082B082BCB
:1026100008008B160530831203135E065F0403194E
:10262000122B132B512CB00106303002031C192B36
:102630001A2B1C2B4C2B4C2B3008AA0001300310FA
:10264000AA0DFF3E031D1F2B03102A0DA03E840080
:1026500083130008A000840A0008A100840A00086F
:10266000A200840A0008A3003008AB002B08A400D5
:102670000A128A11B3270A168A1101308312031332
:10268000AA002A08B00706303002031C482B492B49
:102690001C2B4C2B4C2B4C2B0130E0070318E10A70
:1026A0000030E1070130600661040319582B592BF3
:1026B0004C2BB00106303002031C5F2B602B622BC9
:1026C0009E2B9E2B3008AA0001300310AA0DFF3E5E
:1026D000031D652B03102A0DA03E84008313000800
:1026E000AB00840A0008AC00840A0008AD00840A2C
:1026F0000008AE0069082B05A0006A082C05A1009F
:102700006B082D05A2006C082E05A3003008AF0051
:102710002F08A4000A128A11B3270A168A11013061
:1027200083120313AA002A08B00706303002031CE4
:102730009A2B9B2B622B9E2B9E2B9E2B0130E0070E
:102740000318E10A0030E10700306102203003196C
:102750006002031CAC2BAD2B9E2BB0010630300267
:10276000031CB32BB42BB62BF22BF22B3008AA0090
:1027700001300310AA0DFF3E031DB92B03102A0DD3
:10278000A03E840083130008AB00840A0008AC005C
:10279000840A0008AD00840A0008AE0065082B0515
:1027A000A00066082C05A10067082D05A200680896
:1027B0002E05A3003008AF002F08A4000A128A11CA
:1027C000B3270A168A11013083120313AA002A08BC
:1027D000B00706303002031CEE2BEF2BB62BF22B8A
:1027E000F22BF22B0130E0070318E10A0030E10779
:1027F00000306102663003196002031C002C012CBA
:10280000F22B022C00306806031D102C00306706E6
:10281000031D102C00306606031D102C03306506C6
:10282000031D132C142C1C2C0030EC000030EB008A
:102830000030EA000F30E90000306806031D2A2C42
:1028400000306706031D2A2C00306606031D2A2C63
:1028500006306506031D2D2C2E2C362C0030EC0086
:102860000030EB000030EA001F30E900003068065D
:10287000031D442C00306706031D442C00306606FF
:10288000031D442C0C306506031D472C482C512C8D
:102890000030EC000030EB000030EA003F30E9008F
:1028A000512C05305E065F04031D572C582C8F2CCD
:1028B0000130AA000310E50DE60DE70DE80DAA0BA7
:1028C0005A2C6808670466046504031D682C692C8B
:1028D000722C0030E8000030E7000030E6000330E2
:1028E000E500722C0130AA000310E90DEA0DEB0D92
:1028F000EC0DAA0B742C6C086B046A046904031DAC
:10290000822C832C8C2C0030EC000030EB0000304B
:10291000EA000F30E9008C2CDE01DF018F2C08006B
:1029200083120313A200872D220884000A168A113D
:1029300000200A168A110A128A1115200A168A1115
:102940000130F500750883120313A2070630F50065
:10295000031083160313A00DA10DA20DA30DF50BFB
:10296000A82C831203134608831603132004A00027
:10297000831203134708831603132104A100831253
:1029800003134808831603132204A20083120313BF
:102990004908831603132304A3000630F50003102F
:1029A000A40DA50DA60DA70DF50BCF2C83120313B7
:1029B0004A08831603132404A400831203134B084C
:1029C000831603132504A500831203134C088316F2
:1029D00003132604A600831203134D088316031362
:1029E0002704A7000630F5000310A80DA90DAA0DB5
:1029F000AB0DF50BF42C831203134E08831603134F
:102A00002804A800831203134F0883160313290414
:102A1000A900831203135008831603132A04AA0083
:102A2000831203135108831603132B04AB000630E3
:102A3000F5000310AC0DAD0DAE0DAF0DF50B192D5E
:102A4000831203135208831603132C04AC00831261
:102A500003135308831603132D04AD0083120313CD
:102A60005408831603132E04AE0083120313550873
:102A7000831603132F04AF000630F5000310B00DCA
:102A8000B10DB20DB30DF50B3E2D83120313560895
:102A9000831603133004B000831203135708831600
:102AA00003133104B1008312031358088316031370
:102AB0003204B2008312031359088316031333043C
:102AC000B3000630F5000310B40DB50DB60DB70D0B
:102AD000F50B632D831203135A0883160313340472
:102AE000B400831203135B08831603133504B50087
:102AF000831203135C08831603133604B600831293
:102B000003135D08831603133704B700872D831260
:102B1000220884000A168A1100200A168A11003839
:102B2000031D932D942D942C952D0330F500031047
:102B300083160313A00DA10DA20DA30DF50B972D68
:102B40000330F5000310A40DA50DA60DA70DF50B80
:102B5000A22D0330F5000310A80DA90DAA0DAB0D91
:102B6000F50BAB2D0330F5000310AC0DAD0DAE0D24
:102B7000AF0DF50BB42D0330F5000310B00DB10D02
:102B8000B20DB30DF50BBD2D0330F5000310B40DE0
:102B9000B50DB60DB70DF50BC62D83120313200A24
:102BA00083160313D82D0310A30CA20CA10CA00CA8
:102BB000FF3E031DD32D83120313200A8316031334
:102BC000E62D0310A70CA60CA50CA40CFF3E031DBC
:102BD000E12D83120313200A83160313F42D03102F
:102BE000AB0CAA0CA90CA80CFF3E031DEF2D831201
:102BF0000313200A83160313022E0310AF0CAE0C2E
:102C0000AD0CAC0CFF3E031DFD2D83120313200AF7
:102C100083160313102E0310B30CB20CB10CB00CBE
:102C2000FF3E031D0B2E83120313200A831603138A
:102C30001E2E0310B70CB60CB50CB40CFF3E031DD2
:102C4000192E080083120313AF01322F8B163C306C
:102C50005E065F0403192D2E2E2E212F83160313DB
:102C6000200983120313AA00831603132109831278
:102C70000313AB0083160313220983120313AC0062
:102C800083160313230983120313AD002D08A30039
:102C90002C08A2002B08A1002A08A000A4010A12F7
:102CA0008A11B3270A168A11831603132409831283
:102CB0000313AA0083160313250983120313AB0021
:102CC00083160313260983120313AC008316031320
:102CD000270983120313AD002D08A3002C08A200BE
:102CE0002B08A1002A08A000A4010314A40D0A12B5
:102CF0008A11B3270A168A1183160313280983122F
:102D00000313AA0083160313290983120313AB00CC
:102D1000831603132A0983120313AC0083160313CB
:102D20002B0983120313AD002D08A3002C08A20069
:102D30002B08A1002A08A0000230AE002E08A40033
:102D40000A128A11B3270A168A11831603132C0953
:102D500083120313AA00831603132D09831203138E
:102D6000AB00831603132E0983120313AC008316E2
:102D700003132F0983120313AD002D08A3002C08A1
:102D8000A2002B08A1002A08A0000330AE002E08E4
:102D9000A4000A128A11B3270A168A118316031394
:102DA000300983120313AA00831603133109831217
:102DB0000313AB0083160313320983120313AC0011
:102DC00083160313330983120313AD002D08A300E8
:102DD0002C08A2002B08A1002A08A0000430AE0095
:102DE0002E08A4000A128A11B3270A168A11831624
:102DF0000313340983120313AA008316031335093E
:102E000083120313AB0083160313360983120313D3
:102E1000AC0083160313370983120313AD002D088A
:102E2000A3002C08A2002B08A1002A08A00005304E
:102E3000AE002E08A4000A128A11B3270A168A11BE
:102E4000322F3C30831203135E065F04031D292FCB
:102E50002A2F322FAF010314AF0DDE01DF01322F15
:102E6000322F322F831203132F08013A031D392FFB
:102E70003A2F262EF62FF62F8B163C305E065F0477
:102E80000319432F442FE42F8316031323088312BF
:102E90000313A30083160313220883120313A20053
:102EA00083160313210883120313A100831603134F
:102EB000200883120313A000A4010A128A11B32769
:102EC0000A168A110430A03E84008313000883127E
:102ED0000313A000840A0008A100840A0008A200CD
:102EE000840A0008A300A4010314A40D0A128A1185
:102EF000B3270A168A110830A03E84008313000805
:102F000083120313A000840A0008A100840A0008A9
:102F1000A200840A0008A3000230AA002A08A40024
:102F20000A128A11B3270A168A110C30A03E8400B7
:102F30008313000883120313A000840A0008A10071
:102F4000840A0008A200840A0008A3000330AA0033
:102F50002A08A4000A128A11B3270A168A1110300F
:102F6000A03E84008313000883120313A000840A88
:102F70000008A100840A0008A200840A0008A30037
:102F80000430AA002A08A4000A128A11B3270A16DC
:102F90008A111430A03E84008313000883120313A7
:102FA000A000840A0008A100840A0008A200840A84
:102FB0000008A3000530AA002A08A4000A128A11FA
:102FC000B3270A168A11F62F3C30831203135E06CC
:102FD0005F04031DEC2FED2FF62F0230AA002A0804
:102FE000AF00DE01DF01F62FF62FF62F8312031359
:102FF0002F08023A031DFD2FFE2F3C2FFF2F080044
:020000040000FA
:04400E00E220FF3F6E
:00000001FF
